:100000000C942A000C943F000C943F000C943F0089
:100010000C943F000C943F000C943F000C943F0064
:100020000C943F000C943F000C943F000C943F0054
:100030000C943F000C943F000C943F000C943F0044
:100040000C943F000C943F000C943F000C943F0034
:100050000C943F0011241FBECFE5D8E0DEBFCDBF1A
:1000600010E0A0E6B0E0ECE5FAE302C005900D92E6
:10007000A836B107D9F70E94981B0C942C1D0C943C
:100080000000EF92FF920F931F937B018C0120E001
:1000900030E040E05FE40E94410388238CF0C80117
:1000A000B70120E030E040E05FE40E94B9010E9427
:1000B000A1039B01AC01205030404040504806C095
:1000C000C801B7010E94A1039B01AC01B901CA019B
:1000D0001F910F91FF90EF900895A0E0B0E0E3E74B
:1000E000F0E00C94B01CDC012B01FA019C919230E1
:1000F00008F439C1EB018881823008F433C19430AF
:1001000069F4843009F02FC111969C91119789816F
:10011000981709F428C1A0E6B0E025C1843009F49D
:1001200021C18230A9F4923009F01DC19A01AD01BC
:1001300088E0EA010990AE01E90109929E0181502F
:10014000C1F7E201898111969C918923818308C1BD
:10015000923009F407C112962D903C901397EB0151
:100160008A819B811496AD90BD90CD90DC901797BD
:10017000EC80FD800E811F819101281B390BB90194
:1001800037FF04C066277727621B730B6032710547
:100190000CF061C0121613066CF537014801062EEB
:1001A00004C096948794779467940A94D2F721E0D8
:1001B00030E040E050E004C0220F331F441F551FC1
:1001C0006A95D2F721503040404050402E213F21C7
:1001D00040235123211531054105510521F021E02E
:1001E00030E040E050E079018A01E628F72808294C
:1001F00019293CC0232BD1F1260E371E35014601AB
:10020000062E04C096948794779467940A94D2F744
:1002100021E030E040E050E004C0220F331F441FD3
:10022000551F6A95D2F721503040404050402A2156
:100230003B214C215D21211531054105510521F05E
:1002400021E030E040E050E059016A01A628B728DB
:10025000C828D9280BC0821593052CF01C01AA24AC
:10026000BB24650103C0EE24FF24870111969C91F5
:10027000D20111968C91981709F445C0992339F051
:10028000A80197012A193B094C095D0906C0A6017E
:1002900095012E193F09400B510B57FD08C01182E3
:1002A0003382228224833583468357831DC081E0B5
:1002B00081833382228288279927DC01821B930B5A
:1002C000A40BB50B84839583A683B7830DC0220F3F
:1002D000331F441F551F24833583468357838281F0
:1002E000938101979383828324813581468157814D
:1002F000DA01C9010197A109B1098F5F9F4FAF4F83
:10030000BF4328F30BC0918333822282EA0CFB1C8B
:100310000C1D1D1DE482F5820683178383E0808314
:10032000248135814681578157FF1AC0C901AA2708
:1003300097FDA095BA2F81709070A070B0705695FF
:10034000479537952795822B932BA42BB52B848328
:100350009583A683B7838281938101969383828359
:10036000DF0101C0D201CD01CDB7DEB7E2E10C94CF
:10037000CC1CA0E2B0E0EFEBF1E00C94BC1C698374
:100380007A838B839C832D833E834F835887E9E058
:10039000EE2EF12CEC0EFD1ECE010196B7010E944F
:1003A000CA048E010F5E1F4FCE010596B8010E9450
:1003B000CA048A8991E089278A8BC701B801AE01F6
:1003C000475E5F4F0E946D000E94F503A096E6E035
:1003D0000C94D81CA0E2B0E0E0EFF1E00C94BC1C5F
:1003E00069837A838B839C832D833E834F835887D5
:1003F000F9E0EF2EF12CEC0EFD1ECE010196B701B7
:100400000E94CA048E010F5E1F4FCE010596B801EF
:100410000E94CA04C701B801AE01475E5F4F0E9447
:100420006D000E94F503A096E6E00C94D81CA0E2B3
:10043000B0E0EDE1F2E00C94B01C69837A838B8329
:100440009C832D833E834F835887CE010196BE0146
:10045000675F7F4F0E94CA04CE010596BE016F5EA2
:100460007F4F0E94CA049985923088F08989823032
:10047000C8F0943019F4823051F404C0843029F467
:10048000923081F480E690E0C6C0923049F420E0DA
:100490009A858A89981321E02A87CE010996BBC0E4
:1004A000823049F420E09A858A89981321E02A8BCA
:1004B000CE014196B0C02D843E844F8458886D880B
:1004C0007E888F88988CEE24FF248701AA24BB2481
:1004D000650140E050E060E070E0E0E0F0E0C10184
:1004E00081709070892BE9F0E60CF71C081D191D2E
:1004F0009A01AB012A0D3B1D4C1D5D1D80E090E073
:10050000A0E0B0E0E614F7040805190520F481E046
:1005100090E0A0E0B0E0BA01A901480F591F6A1F9E
:100520007B1FAA0CBB1CCC1CDD1C97FE08C081E005
:1005300090E0A0E0B0E0A82AB92ACA2ADB2A3196C6
:10054000E032F10549F0660C771C881C991C569422
:10055000479437942794C3CFFA85EA892B893C893D
:100560008B859C85280F391F2E5F3F4F17C0CA010E
:1005700081709070892B61F016950795F794E79438
:1005800080E090E0A0E0B0E8E82AF92A0A2B1B2BD3
:1005900076956795579547952F5F3F4F77FDE7CF46
:1005A0000CC0440F551F661F771F17FD4160EE0CEE
:1005B000FF1C001F111F21503040403090E05907B0
:1005C00090E0690790E4790760F32B8F3C8FDB01A3
:1005D000CA018F779070A070B07080349105A1052A
:1005E000B10561F447FD0AC0E114F10401051105EC
:1005F00029F0405C5F4F6F4F7F4F40781A8EFE1797
:1006000011F081E08A8F4D8F5E8F6F8F78A383E02A
:10061000898FCE0149960E94F503A096E2E10C94E1
:10062000CC1CA8E1B0E0E7E1F3E00C94BC1C6983CA
:100630007A838B839C832D833E834F83588789E005
:10064000E82EF12CEC0EFD1ECE010196B7010E94A2
:10065000CA048E010F5E1F4FCE010596B8010E949D
:10066000CA048985823040F08989823028F0C70128
:10067000B8010E94420501C08FEF6896E6E00C9435
:10068000D81CA8E1B0E0E7E4F3E00C94BC1C69835B
:100690007A838B839C832D833E834F83588789E0A5
:1006A000E82EF12CEC0EFD1ECE010196B7010E9442
:1006B000CA048E010F5E1F4FCE010596B8010E943D
:1006C000CA048985823040F08989823028F0C701C8
:1006D000B8010E94420501C08FEF6896E6E00C94D5
:1006E000D81CA8E1B0E0E7E7F3E00C94BC1C6983F8
:1006F0007A838B839C832D833E834F83588789E045
:10070000E82EF12CEC0EFD1ECE010196B7010E94E1
:10071000CA048E010F5E1F4FCE010596B8010E94DC
:10072000CA048985823040F08989823028F0C70167
:10073000B8010E94420501C081E06896E6E00C9491
:10074000D81CACE0B0E0E7EAF3E00C94C01C69838D
:100750007A838B839C83CE010196BE016B5F7F4FB2
:100760000E94CA048D81823061F1823050F1843060
:1007700021F48E81882351F12EC02F81388537FDD9
:1007800020C06E812F3131051CF06623F9F023C0A3
:100790008EE190E0821B930B29853A854B855C8521
:1007A00004C056954795379527958A95D2F76623C5
:1007B000B1F050954095309521953F4F4F4F5F4F89
:1007C0000EC020E030E040E050E009C02FEF3FEFE6
:1007D0004FEF5FE704C020E030E040E050E8B901AF
:1007E000CA012C96E2E00C94DC1CDF92EF92FF929F
:1007F0000F931F93FC01E480F58006811781D1805F
:100800008081823048F480E090E0A0E1B0E0E82A06
:10081000F92A0A2B1B2BA5C0843009F49FC0823013
:1008200021F4EE24FF24870105C0E114F104010541
:10083000110519F4E0E0F0E096C0628173819FEF4A
:10084000623879070CF05BC022E83FEF261B370BBC
:100850002A3131052CF020E030E040E050E02AC0A1
:10086000B801A701022E04C0769567955795479564
:100870000A94D2F781E090E0A0E0B0E004C0880FD5
:10088000991FAA1FBB1F2A95D2F70197A109B10989
:100890008E219F21A023B1230097A105B10521F04E
:1008A00081E090E0A0E0B0E09A01AB01282B392B69
:1008B0004A2B5B2BDA01C9018F779070A070B07062
:1008C00080349105A105B10539F427FF09C0205CEA
:1008D0003F4F4F4F5F4F04C0215C3F4F4F4F5F4F23
:1008E000E0E0F0E02030A0E03A07A0E04A07A0E412
:1008F0005A0710F0E1E0F0E079018A0127C0603882
:10090000710564F5FB01E158FF4FD801C7018F77EE
:100910009070A070B07080349105A105B10539F4D4
:10092000E7FE0DC080E490E0A0E0B0E004C08FE3FB
:1009300090E0A0E0B0E0E80EF91E0A1F1B1F17FFB1
:1009400005C016950795F794E794319687E01695BC
:100950000795F794E7948A95D1F705C0EE24FF2414
:100960008701EFEFF0E06E2F679566276795902F70
:100970009F77D794DD24D7948E2F8695492F462BC9
:10098000582F5D29B701CA011F910F91FF90EF9079
:10099000DF900895FC01DB01408151812281622FAB
:1009A0006F7770E0221F2227221F9381892F880FE3
:1009B000822B282F30E0991F9927991F11969C931D
:1009C000119721153105A9F54115510561057105ED
:1009D00011F482E037C082E89FEF13969C938E93C8
:1009E00012979A01AB0167E0220F331F441F551F76
:1009F0006A95D1F783E08C930DC0220F331F441FFB
:100A0000551F12968D919C911397019713969C9365
:100A10008E931297203080E0380780E0480780E40A
:100A2000580758F314962D933D934D935C93179765
:100A300008952F3F310579F4411551056105710580
:100A400019F484E08C93089564FF03C081E08C93D3
:100A500012C01C9210C02F57304013963C932E9317
:100A6000129783E08C9387E0440F551F661F771F12
:100A70008A95D1F7706414964D935D936D937C9332
:100A8000179708951F93DC01FB019C91923008F4A5
:100A900047C08081823008F443C0943051F41196ED
:100AA0001C91843099F58181682F70E0611B710978
:100AB0003FC0843021F0923031F48230B9F181812D
:100AC000882389F12DC011961C9111978230F1F085
:100AD00081811817D9F412962D913C911397828138
:100AE00093818217930794F028173907BCF0149666
:100AF0008D919D910D90BC91A02D248135814681D1
:100B00005781281739074A075B0718F4112341F06A
:100B10000AC082179307A407B50740F4112319F000
:100B200061E070E005C06FEF7FEF02C060E070E051
:100B3000CB011F910895DF93CF93CDB7DEB7A6E227
:100B4000B0E0E6E2F0E0808180688C93CF91DF91A5
:100B50000895DF93CF93CDB7DEB7A6E2B0E0E6E22B
:100B6000F0E0808180648C93E6E2F0E08081829501
:100B70008F70882F90E0817090700097A9F3CF91CB
:100B8000DF910895DF93CF93CDB7DEB7E6E2F0E0D3
:100B900080818295869586958370882F90E08170FC
:100BA0009070882399F7CF91DF910895DF93CF93C9
:100BB00000D00F92CDB7DEB789838981282F30E02E
:100BC0003B832A838A819B8181309105C1F02A81F0
:100BD0003B812230310511F18A819B81009761F5BB
:100BE000A7E2B0E0E7E2F0E080818F7B8C93A7E2A0
:100BF000B0E0E7E2F0E080818F778C931DC0A7E240
:100C0000B0E0E7E2F0E080818F778C93A7E2B0E07C
:100C1000E7E2F0E0808180648C930EC0A7E2B0E050
:100C2000E7E2F0E0808180648C93A7E2B0E0E7E245
:100C3000F0E0808180688C930F900F900F90CF919F
:100C4000DF910895DF93CF9300D00F92CDB7DEB739
:100C500089838981282F30E03B832A838A819B8185
:100C60008F30910509F447C12A813B81203131053C
:100C70000CF05AC08A819B818730910509F4F3C03A
:100C80002A813B812830310554F58A819B8183304C
:100C9000910509F4C4C02A813B812430310594F4C4
:100CA0008A819B818130910509F4A7C02A813B810B
:100CB000223031050CF0AAC08A819B81009709F48B
:100CC00094C0B0C12A813B812530310509F4B9C0F7
:100CD0008A819B81863091050CF0BCC0A9C02A8115
:100CE0003B812B30310509F4E2C08A819B818C3035
:100CF00091056CF42A813B812930310509F4C5C086
:100D00008A819B818A3091050CF0C8C0B5C02A81C8
:100D10003B812D30310509F4DCC08A819B818E3006
:100D200091050CF0DFC0CCC02A813B812731310511
:100D300009F429C18A819B81883191052CF52A818A
:100D40003B812331310509F4FAC08A819B818431CA
:100D500091056CF42A813B812131310509F4DDC014
:100D60008A819B81823191050CF0E0C0CDC02A813F
:100D70003B812531310509F4F4C08A819B8186319C
:100D800091050CF0F7C0E4C02A813B812B3131057D
:100D900009F41DC18A819B818C3191056CF42A81F3
:100DA0003B812931310509F400C18A819B818A3157
:100DB00091050CF003C1F0C02A813B812D31310532
:100DC00009F417C18A819B818D3191050CF408C10A
:100DD0002A813B812E31310509F414C18A819B811E
:100DE0008F31910509F417C11DC1A7E2B0E0E7E218
:100DF000F0E08081807E8C9315C1A7E2B0E0E7E24D
:100E0000F0E08081807E81608C930CC1A7E2B0E02D
:100E1000E7E2F0E08081807E82608C9303C1A7E2EC
:100E2000B0E0E7E2F0E08081807E83608C93FAC0DE
:100E3000A7E2B0E0E7E2F0E08081807E84608C93FE
:100E4000F1C0A7E2B0E0E7E2F0E08081807E85605B
:100E50008C93E8C0A7E2B0E0E7E2F0E08081807E1A
:100E600086608C93DFC0A7E2B0E0E7E2F0E080812B
:100E7000807E87608C93D6C0A7E2B0E0E7E2F0E026
:100E80008081807E88608C93CDC0A7E2B0E0E7E2ED
:100E9000F0E08081807E89608C93C4C0A7E2B0E0DE
:100EA000E7E2F0E08081807E8A608C93BBC0A7E29D
:100EB000B0E0E7E2F0E08081807E8B608C93B2C08E
:100EC000A7E2B0E0E7E2F0E08081807E8C608C9366
:100ED000A9C0A7E2B0E0E7E2F0E08081807E8D600B
:100EE0008C93A0C0A7E2B0E0E7E2F0E08081807ED2
:100EF0008E608C9397C0A7E2B0E0E7E2F0E08081DB
:100F0000807E8F608C938EC0A7E2B0E0E7E2F0E0D5
:100F10008081807E80618C9385C0A7E2B0E0E7E2AB
:100F2000F0E08081807E81618C937CC0A7E2B0E09C
:100F3000E7E2F0E08081807E82618C9373C0A7E25B
:100F4000B0E0E7E2F0E08081807E83618C936AC04C
:100F5000A7E2B0E0E7E2F0E08081807E84618C93DC
:100F600061C0A7E2B0E0E7E2F0E08081807E8561C9
:100F70008C9358C0A7E2B0E0E7E2F0E08081807E89
:100F800086618C934FC0A7E2B0E0E7E2F0E0808199
:100F9000807E87618C9346C0A7E2B0E0E7E2F0E094
:100FA0008081807E88618C933DC0A7E2B0E0E7E25B
:100FB000F0E08081807E89618C9334C0A7E2B0E04C
:100FC000E7E2F0E08081807E8A618C932BC0A7E20B
:100FD000B0E0E7E2F0E08081807E8B618C9322C0FC
:100FE000A7E2B0E0E7E2F0E08081807E8C618C9344
:100FF00019C0A7E2B0E0E7E2F0E08081807E8D6179
:101000008C9310C0A7E2B0E0E7E2F0E08081807E40
:101010008E618C9307C0A7E2B0E0E7E2F0E0808148
:101020008F618C930F900F900F90CF91DF91089567
:10103000DF93CF930F92CDB7DEB78983898181305B
:1010400041F4A7E2B0E0E7E2F0E0808180628C93B7
:1010500007C0A7E2B0E0E7E2F0E080818F7D8C93EB
:101060000F90CF91DF910895DF93CF93CDB7DEB787
:10107000A6E2B0E0E6E2F0E0808180628C93CF915E
:10108000DF910895DF93CF930F92CDB7DEB78983B9
:1010900089818823B1F4A0E5B0E0E0E5F0E080814B
:1010A0008F778C93A0E5B0E0E0E5F0E080818F7B66
:1010B0008C93A0E5B0E0E0E5F0E080818F7D8C933B
:1010C00038C089818130B1F4A0E5B0E0E0E5F0E01E
:1010D00080818F778C93A0E5B0E0E0E5F0E080813F
:1010E0008F7B8C93A0E5B0E0E0E5F0E0808180624A
:1010F0008C931FC089818230E1F4A6E2B0E0E6E281
:10110000F0E0808188608C93A0E5B0E0E0E5F0E05D
:1011100080818F7D8C93A0E5B0E0E0E5F0E08081F8
:101120008F778C93A0E5B0E0E0E5F0E0808180640B
:101130008C930F90CF91DF910895DF93CF93CDB72C
:10114000DEB729970FB6F894DEBF0FBECDBF8F83F1
:101150001E821D821C821B821A821982E7E2F0E045
:101160008081829586958770882F90E0817090703D
:10117000009749F5E4E2F0E080818D83E5E2F0E05C
:10118000808183708E838D81282F30E08E81882F1F
:1011900090E0982F8827822B932B9C838B838F81C1
:1011A000282F30E08B819C81AC01249FC001259FBA
:1011B000900D349F900D1124892F9927869586953F
:1011C0009A83898326C0E5E2F0E080818E838E8158
:1011D000282F30E08F81882F90E0AC01249FC00140
:1011E000259F900D349F900D1124998788878885BD
:1011F0009985992334F42885398521503F4F3987C3
:10120000288748855985852F992787FD9A959A8340
:10121000898389819A8129960FB6F894DEBF0FBE23
:10122000CDBFCF91DF910895DF93CF9300D00F9280
:10123000CDB7DEB789838981282F30E03B832A83AD
:101240008A819B818330910509F43FC02A813B81CB
:10125000243031057CF48A819B818130910519F11C
:101260002A813B81223031053CF58A819B810097A0
:1012700089F04DC02A813B8125303105C1F18A8139
:101280009B818530910554F12A813B8126303105BF
:10129000B9F13DC0A6E2B0E0E6E2F0E08081887FEF
:1012A00081608C9334C0A6E2B0E0E6E2F0E0808199
:1012B000887F82608C932BC0A6E2B0E0E6E2F0E08B
:1012C0008081887F83608C9322C0A6E2B0E0E6E252
:1012D000F0E08081887F84608C9319C0A6E2B0E042
:1012E000E6E2F0E08081887F85608C9310C0A6E202
:1012F000B0E0E6E2F0E08081887F86608C9307C0F2
:10130000A6E2B0E0E6E2F0E0808187608C930F9087
:101310000F900F90CF91DF910895DF93CF93CDB7CA
:10132000DEB76D970FB6F894DEBF0FBECDBF8D8FC1
:1013300082E060E040E00E940F1A82E061E040E05D
:101340000E940F1A82E062E041E00E940F1A80E0E2
:1013500090E0A0E0B0E4898F9A8FAB8FBC8F698D4D
:101360007A8D8B8D9C8D20E030E04AEF54E40E9412
:101370001702DC01CB018D8B9E8BAF8BB88F6D89F3
:101380007E898F89988D20E030E040E85FE30E94FD
:10139000710388232CF481E090E09C8B8B8B3FC001
:1013A0006D897E898F89988D20E03FEF4FE757E464
:1013B0000E94110318164CF5698D7A8D8B8D9C8DCA
:1013C00020E030E040E251E40E941702DC01CB0152
:1013D000BC01CD010E944100DC01CB019C8B8B8BB9
:1013E0000FC088EC90E09A8B898B89899A89019744
:1013F000F1F79A8B898B8B899C8901979C8B8B8BBE
:101400008B899C89009769F714C06D897E898F89C3
:10141000988D0E944100DC01CB019C8B8B8B8B89CA
:101420009C89988B8F878F8598890197F1F7988B86
:101430008F8783E06D8D0E94C61882E062E040E0F5
:101440000E940F1A80E090E0A0E0B0E48B879C87B8
:10145000AD87BE876B857C858D859E8520E030E0DD
:101460004AEF54E40E941702DC01CB018F83988776
:10147000A987BA876F81788589859A8520E030E0D1
:1014800040E85FE30E94710388232CF481E090E040
:101490009E838D833FC06F81788589859A8520E002
:1014A0003FEF4FE757E40E94110318164CF56B8588
:1014B0007C858D859E8520E030E040E251E40E94ED
:1014C0001702DC01CB01BC01CD010E944100DC010F
:1014D000CB019E838D830FC088EC90E09C838B832F
:1014E0008B819C810197F1F79C838B838D819E81F9
:1014F00001979E838D838D819E81009769F714C02B
:101500006F81788589859A850E944100DC01CB0135
:101510009E838D838D819E819A83898389819A811F
:101520000197F1F79A83898382E062E041E00E94AB
:101530000F1A6D960FB6F894DEBF0FBECDBFCF91D8
:10154000DF910895DF93CF93CDB7DEB72F970FB616
:10155000F894DEBF0FBECDBF8F8782E060E041E030
:101560000E940F1A82E061E040E00E940F1A82E0C0
:1015700062E041E00E940F1A83E06F850E94C61866
:1015800082E062E040E00E940F1A80E090E0A0E07C
:10159000B0E48B879C87AD87BE876B857C858D8506
:1015A0009E8520E030E04AEF54E40E941702DC01FF
:1015B000CB018F839887A987BA876F8178858985C2
:1015C0009A8520E030E040E85FE30E9471038823C1
:1015D0002CF481E090E09E838D833FC06F817885FD
:1015E00089859A8520E03FEF4FE757E40E94110379
:1015F00018164CF56B857C858D859E8520E030E046
:1016000040E251E40E941702DC01CB01BC01CD0194
:101610000E944100DC01CB019E838D830FC088ECCA
:1016200090E09C838B838B819C810197F1F79C8355
:101630008B838D819E8101979E838D838D819E8179
:10164000009769F714C06F81788589859A850E9413
:101650004100DC01CB019E838D838D819E819A8325
:10166000898389819A810197F1F79A83898382E03E
:1016700062E041E00E940F1A2F960FB6F894DEBF89
:101680000FBECDBFCF91DF910895DF93CF93CDB73C
:10169000DEB7E8970FB6F894DEBF0FBECDBF82E08D
:1016A00060E041E00E94071982E061E041E00E94B1
:1016B000071982E062E041E00E94071983E061E0DF
:1016C0000E944D1880E090E0A0EFB1E48DAB9EAB9E
:1016D000AFABB8AF6DA97EA98FA998AD20E030E07F
:1016E0004AEF54E40E941702DC01CB0189AB9AABAC
:1016F000ABABBCAB69A97AA98BA99CA920E030E06F
:1017000040E85FE30E94710388232CF481E090E0BD
:1017100098AB8FA73FC069A97AA98BA99CA920E0A3
:101720003FEF4FE757E40E94110318164CF56DA9DF
:101730007EA98FA998AD20E030E040E251E40E94FC
:101740001702DC01CB01BC01CD010E944100DC018C
:10175000CB0198AB8FA70FC088EC90E09EA78DA718
:101760008DA59EA50197F1F79EA78DA78FA598A996
:10177000019798AB8FA78FA598A9009769F714C018
:1017800069A97AA98BA99CA90E944100DC01CB011F
:1017900098AB8FA78FA598A99CA78BA78BA59CA575
:1017A0000197F1F79CA78BA788E30E948D0980E041
:1017B00090E0A0E0B0E48FA398A7A9A7BAA76FA173
:1017C00078A589A59AA520E030E04AEF54E40E946C
:1017D0001702DC01CB018BA39CA3ADA3BEA36BA11D
:1017E0007CA18DA19EA120E030E040E85FE30E9453
:1017F000710388232CF481E090E09AA389A33FC071
:101800006BA17CA18DA19EA120E03FEF4FE757E4A3
:101810000E94110318164CF56FA178A589A59AA509
:1018200020E030E040E251E40E941702DC01CB01ED
:10183000BC01CD010E944100DC01CB019AA389A328
:101840000FC088EC90E098A38F8F8F8D98A101979F
:10185000F1F798A38F8F89A19AA101979AA389A3E1
:1018600089A19AA1009769F714C06BA17CA18DA1F1
:101870009EA10E944100DC01CB019AA389A389A10A
:101880009AA19E8F8D8F8D8D9E8D0197F1F79E8FE2
:101890008D8F8EE00E948D0980E090E0A0E0B0E4A2
:1018A000898F9A8FAB8FBC8F698D7A8D8B8D9C8D34
:1018B00020E030E04AEF54E40E941702DC01CB0143
:1018C0008D8B9E8BAF8BB88F6D897E898F89988D1C
:1018D00020E030E040E85FE30E94710388232CF4AD
:1018E00081E090E09C8B8B8B3FC06D897E898F89D6
:1018F000988D20E03FEF4FE757E40E941103181640
:101900004CF5698D7A8D8B8D9C8D20E030E040E226
:1019100051E40E941702DC01CB01BC01CD010E9401
:101920004100DC01CB019C8B8B8B0FC088EC90E0DD
:101930009A8B898B89899A890197F1F79A8B898B80
:101940008B899C8901979C8B8B8B8B899C890097B9
:1019500069F714C06D897E898F89988D0E94410036
:10196000DC01CB019C8B8B8B8B899C89988B8F871F
:101970008F8598890197F1F7988B8F8781E00E9476
:101980008D0980E090E0A0E0B0E48B879C87AD8774
:10199000BE876B857C858D859E8520E030E04AEF93
:1019A00054E40E941702DC01CB018F839887A9873A
:1019B000BA876F81788589859A8520E030E040E894
:1019C0005FE30E94710388232CF481E090E09E8302
:1019D0008D833FC06F81788589859A8520E03FEFB0
:1019E0004FE757E40E94110318164CF56B857C8570
:1019F0008D859E8520E030E040E251E40E94170290
:101A0000DC01CB01BC01CD010E944100DC01CB0116
:101A10009E838D830FC088EC90E09C838B838B81A9
:101A20009C810197F1F79C838B838D819E81019727
:101A30009E838D838D819E81009769F714C06F818D
:101A4000788589859A850E944100DC01CB019E83BF
:101A50008D838D819E819A83898389819A81019763
:101A6000F1F79A83898386E00E948D09E8960FB684
:101A7000F894DEBF0FBECDBFCF91DF9108950F93D5
:101A80001F93DF93CF93CDB7DEB7C755D0400FB6C6
:101A9000F894DEBF0FBECDBFFE01E95AFF4F808331
:101AA00082E060E040E00E940F1A82E061E040E0E6
:101AB0000E940F1ADE01AB5ABF4FFE01E95AFF4FD9
:101AC0008081882F90E08D939C93DE01AB5ABF4FAD
:101AD000FE01EB5AFF4F80819181807F90708D9342
:101AE0009C93FE01EB5AFF4F908183E0692F0E9487
:101AF000C61882E062E041E00E940F1AFE01EF5A30
:101B0000FF4F80E090E0A0E0B0E480839183A28367
:101B1000B3838E01035B1F4FFE01EF5AFF4F6081BD
:101B200071818281938120E030E04AEF54E40E9489
:101B30001702DC01CB01F80180839183A283B38378
:101B4000FE01E35BFF4F608171818281938120E020
:101B500030E040E85FE30E947103882344F4FE0113
:101B6000E55BFF4F81E090E09183808364C0FE01DC
:101B7000E35BFF4F608171818281938120E03FEFC1
:101B80004FE757E40E94110318160CF043C0FE0102
:101B9000EF5AFF4F608171818281938120E030E0B4
:101BA00040E251E40E941702DC01CB018E01055B8B
:101BB0001F4FBC01CD010E944100DC01CB01F801A7
:101BC000918380831FC0FE01E75BFF4F88EC90E0AC
:101BD00091838083FE01E75BFF4F808191810197B4
:101BE000F1F7FE01E75BFF4F91838083DE01A55B88
:101BF000BF4FFE01E55BFF4F8081918101971196F8
:101C00009C938E93FE01E55BFF4F8081918100974D
:101C1000D1F627C08E01055B1F4FFE01E35BFF4F2E
:101C200060817181828193810E944100DC01CB013E
:101C3000F80191838083DE01A95BBF4FFE01E55B64
:101C4000FF4F808191818D939C93FE01E95BFF4F53
:101C5000808191810197F1F7FE01E95BFF4F91834C
:101C6000808382E062E040E00E940F1AFE01ED5B9B
:101C7000FF4F80E090E0A0E0B0E480839183A283F6
:101C8000B3838E01015C1F4FFE01ED5BFF4F60814E
:101C900071818281938120E030E04AEF54E40E9418
:101CA0001702DC01CB01F80180839183A283B38307
:101CB000FE01FF96608171818281938120E030E096
:101CC00040E85FE30E94710388232CF481E090E0F8
:101CD0009EAF8DAF46C0FE01FF966081718182810B
:101CE000938120E03FEF4FE757E40E94110318165D
:101CF00064F5FE01ED5BFF4F60817181828193810C
:101D000020E030E040E251E40E941702DC01CB0108
:101D1000BC01CD010E944100DC01CB019EAF8DAF23
:101D20000FC088EC90E09CAF8BAF8BAD9CAD019762
:101D3000F1F79CAF8BAF8DAD9EAD01979EAF8DAF90
:101D40008DAD9EAD009769F716C0FE01FF966081CC
:101D50007181828193810E944100DC01CB019EAFA1
:101D60008DAF8DAD9EAD9AAF89AF89AD9AAD01971C
:101D7000F1F79AAF89AF82E062E041E00E940F1A6A
:101D8000FE01EB5AFF4F908183E0692F0E94C61835
:101D900082E062E041E00E940F1A80E090E0A0E063
:101DA000B0E48DAB9EABAFABB8AF6DA97EA98FA9E8
:101DB00098AD20E030E04AEF54E40E941702DC01C5
:101DC000CB0189AB9AABABABBCAB69A97AA98BA9A8
:101DD0009CA920E030E040E85FE30E947103882383
:101DE0002CF481E090E098AB8FA73FC069A97AA955
:101DF0008BA99CA920E03FEF4FE757E40E94110315
:101E000018164CF56DA97EA98FA998AD20E030E099
:101E100040E251E40E941702DC01CB01BC01CD017C
:101E20000E944100DC01CB0198AB8FA70FC088EC6A
:101E300090E09EA78DA78DA59EA50197F1F79EA77F
:101E40008DA78FA598A9019798AB8FA78FA598A963
:101E5000009769F714C069A97AA98BA99CA90E9467
:101E60004100DC01CB0198AB8FA78FA598A99CA757
:101E70008BA78BA59CA50197F1F79CA78BA782E068
:101E800062E040E00E940F1A80E090E0A0E0B0E441
:101E90008FA398A7A9A7BAA76FA178A589A59AA586
:101EA00020E030E04AEF54E40E941702DC01CB014D
:101EB0008BA39CA3ADA3BEA36BA17CA18DA19EA16E
:101EC00020E030E040E85FE30E94710388232CF4B7
:101ED00081E090E09AA389A33FC06BA17CA18DA172
:101EE0009EA120E03FEF4FE757E40E941103181630
:101EF0004CF56FA178A589A59AA520E030E040E2D5
:101F000051E40E941702DC01CB01BC01CD010E940B
:101F10004100DC01CB019AA389A30FC088EC90E0BB
:101F200098A38F8F8F8D98A10197F1F798A38F8F2A
:101F300089A19AA101979AA389A389A19AA100973F
:101F400069F714C06BA17CA18DA19EA10E944100E4
:101F5000DC01CB019AA389A389A19AA19E8F8D8FC1
:101F60008D8D9E8D0197F1F79E8F8D8F82E062E0BF
:101F700041E00E940F1AFE01E95AFF4F8081882F2D
:101F800090E0FE01EB5AFF4F82959295907F982743
:101F9000807F982791838083DE01AB5ABF4FFE017B
:101FA000EB5AFF4F80819181807F90708D939C933D
:101FB000FE01EB5AFF4F908183E0692F0E94C61803
:101FC00082E062E041E00E940F1A80E090E0A0E031
:101FD000B0E4898F9A8FAB8FBC8F698D7A8D8B8D92
:101FE0009C8D20E030E04AEF54E40E941702DC01AF
:101FF000CB018D8B9E8BAF8BB88F6D897E898F893E
:10200000988D20E030E040E85FE30E947103882370
:102010002CF481E090E09C8B8B8B3FC06D897E8996
:102020008F89988D20E03FEF4FE757E40E9411031E
:1020300018164CF5698D7A8D8B8D9C8D20E030E0E3
:1020400040E251E40E941702DC01CB01BC01CD014A
:102050000E944100DC01CB019C8B8B8B0FC088EC74
:1020600090E09A8B898B89899A890197F1F79A8BED
:10207000898B8B899C8901979C8B8B8B8B899C8905
:10208000009769F714C06D897E898F89988D0E94A9
:102090004100DC01CB019C8B8B8B8B899C89988BBD
:1020A0008F878F8598890197F1F7988B8F8782E0CA
:1020B00062E040E00E940F1A80E090E0A0E0B0E40F
:1020C0008B879C87AD87BE876B857C858D859E853C
:1020D00020E030E04AEF54E40E941702DC01CB011B
:1020E0008F839887A987BA876F81788589859A8534
:1020F00020E030E040E85FE30E94710388232CF485
:1021000081E090E09E838D833FC06F8178858985D3
:102110009A8520E03FEF4FE757E40E94110318161D
:102120004CF56B857C858D859E8520E030E040E216
:1021300051E40E941702DC01CB01BC01CD010E94D9
:102140004100DC01CB019E838D830FC088EC90E0C1
:102150009C838B838B819C810197F1F79C838B837C
:102160008D819E8101979E838D838D819E810097B5
:1021700069F714C06F81788589859A850E9441002E
:10218000DC01CB019E838D838D819E819A8389831F
:1021900089819A810197F1F79A83898382E062E0CD
:1021A00041E00E940F1AC95ADF4F0FB6F894DEBF04
:1021B0000FBECDBFCF91DF911F910F910895DF9397
:1021C000CF93CDB7DEB7EB970FB6F894DEBF0FBE57
:1021D000CDBF8BAF82E060E040E00E940F1A82E04A
:1021E00061E040E00E940F1A8BAD882F90E09AAF1B
:1021F00089AF89AD9AAD807F90709AAF89AF99AD64
:1022000083E0692F0E94C61882E062E041E00E94EC
:102210000F1A80E090E0A0E0B0E48DAB9EABAFABD6
:10222000B8AF6DA97EA98FA998AD20E030E04AEF44
:1022300054E40E941702DC01CB0189AB9AABABAB33
:10224000BCAB69A97AA98BA99CA920E030E040E841
:102250005FE30E94710388232CF481E090E098AB47
:102260008FA73FC069A97AA98BA99CA920E03FEF5D
:102270004FE757E40E94110318164CF56DA97EA98B
:102280008FA998AD20E030E040E251E40E941702AF
:10229000DC01CB01BC01CD010E944100DC01CB017E
:1022A00098AB8FA70FC088EC90E09EA78DA78DA557
:1022B0009EA50197F1F79EA78DA78FA598A90197D5
:1022C00098AB8FA78FA598A9009769F714C069A943
:1022D0007AA98BA99CA90E944100DC01CB0198AB93
:1022E0008FA78FA598A99CA78BA78BA59CA50197C5
:1022F000F1F79CA78BA782E062E040E00E940F1AF2
:1023000080E090E0A0E0B0E48FA398A7A9A7BAA7C7
:102310006FA178A589A59AA520E030E04AEF54E4A2
:102320000E941702DC01CB018BA39CA3ADA3BEA32B
:102330006BA17CA18DA19EA120E030E040E85FE38D
:102340000E94710388232CF481E090E09AA389A372
:102350003FC06BA17CA18DA19EA120E03FEF4FE784
:1023600057E40E94110318164CF56FA178A589A5B2
:102370009AA520E030E040E251E40E941702DC011F
:10238000CB01BC01CD010E944100DC01CB019AA32D
:1023900089A30FC088EC90E098A38F8F8F8D98A1B0
:1023A0000197F1F798A38F8F89A19AA101979AA31A
:1023B00089A389A19AA1009769F714C06BA17CA198
:1023C0008DA19EA10E944100DC01CB019AA389A3AB
:1023D00089A19AA19E8F8D8F8D8D9E8D0197F1F78A
:1023E0009E8F8D8F82E062E041E00E940F1A8BADDC
:1023F000882F90E082959295907F9827807F9827EC
:102400009AAF89AF89AD9AAD807F90709AAF89AF4E
:1024100099AD83E0692F0E94C61882E062E041E036
:102420000E940F1A80E090E0A0E0B0E4898F9A8FBC
:10243000AB8FBC8F698D7A8D8B8D9C8D20E030E0C9
:102440004AEF54E40E941702DC01CB018D8B9E8B76
:10245000AF8BB88F6D897E898F89988D20E030E0B1
:1024600040E85FE30E94710388232CF481E090E050
:102470009C8B8B8B3FC06D897E898F89988D20E0E6
:102480003FEF4FE757E40E94110318164CF5698D92
:102490007A8D8B8D9C8D20E030E040E251E40E94EB
:1024A0001702DC01CB01BC01CD010E944100DC011F
:1024B000CB019C8B8B8B0FC088EC90E09A8B898B27
:1024C00089899A890197F1F79A8B898B8B899C89E5
:1024D00001979C8B8B8B8B899C89009769F714C023
:1024E0006D897E898F89988D0E944100DC01CB0126
:1024F0009C8B8B8B8B899C89988B8F878F859889F8
:102500000197F1F7988B8F8782E062E040E00E94AC
:102510000F1A80E090E0A0E0B0E48B879C87AD8745
:10252000BE876B857C858D859E8520E030E04AEFF7
:1025300054E40E941702DC01CB018F839887A9879E
:10254000BA876F81788589859A8520E030E040E8F8
:102550005FE30E94710388232CF481E090E09E8366
:102560008D833FC06F81788589859A8520E03FEF14
:102570004FE757E40E94110318164CF56B857C85D4
:102580008D859E8520E030E040E251E40E941702F4
:10259000DC01CB01BC01CD010E944100DC01CB017B
:1025A0009E838D830FC088EC90E09C838B838B810E
:1025B0009C810197F1F79C838B838D819E8101978C
:1025C0009E838D838D819E81009769F714C06F81F2
:1025D000788589859A850E944100DC01CB019E8324
:1025E0008D838D819E819A83898389819A810197C8
:1025F000F1F79A83898382E062E041E00E940F1A3A
:10260000EB960FB6F894DEBF0FBECDBFCF91DF9132
:102610000895DF93CF93CDB7DEB7EB970FB6F8945D
:10262000DEBF0FBECDBF8BAF82E060E041E00E9415
:102630000F1A82E061E040E00E940F1A8BAD882FF4
:1026400090E09AAF89AF89AD9AAD807F90709AAFD4
:1026500089AF99AD83E0692F0E94C61882E062E0DD
:1026600041E00E940F1A80E090E0A0E0B0E48DAB62
:102670009EABAFABB8AF6DA97EA98FA998AD20E096
:1026800030E04AEF54E40E941702DC01CB0189AB31
:102690009AABABABBCAB69A97AA98BA99CA920E08A
:1026A00030E040E85FE30E94710388232CF481E06E
:1026B00090E098AB8FA73FC069A97AA98BA99CA984
:1026C00020E03FEF4FE757E40E94110318164CF546
:1026D0006DA97EA98FA998AD20E030E040E251E4D9
:1026E0000E941702DC01CB01BC01CD010E94410018
:1026F000DC01CB0198AB8FA70FC088EC90E09EA7C0
:102700008DA78DA59EA50197F1F79EA78DA78FA5F3
:1027100098A9019798AB8FA78FA598A9009769F7FB
:1027200014C069A97AA98BA99CA90E944100DC0167
:10273000CB0198AB8FA78FA598A99CA78BA78BA53A
:102740009CA50197F1F79CA78BA782E062E040E08F
:102750000E940F1A80E090E0A0E0B0E48FA398A759
:10276000A9A7BAA76FA178A589A59AA520E030E00E
:102770004AEF54E40E941702DC01CB018BA39CA317
:10278000ADA3BEA36BA17CA18DA19EA120E030E0F2
:1027900040E85FE30E94710388232CF481E090E01D
:1027A0009AA389A33FC06BA17CA18DA19EA120E02B
:1027B0003FEF4FE757E40E94110318164CF56FA145
:1027C00078A589A59AA520E030E040E251E40E9476
:1027D0001702DC01CB01BC01CD010E944100DC01EC
:1027E000CB019AA389A30FC088EC90E098A38F8FA8
:1027F0008F8D98A10197F1F798A38F8F89A19AA146
:1028000001979AA389A389A19AA1009769F714C097
:102810006BA17CA18DA19EA10E944100DC01CB0196
:102820009AA389A389A19AA19E8F8D8F8D8D9E8D4C
:102830000197F1F79E8F8D8F82E062E041E00E9468
:102840000F1A8BAD882F90E082959295907F9827F4
:10285000807F98279AAF89AF89AD9AAD807F9070BD
:102860009AAF89AF99AD83E0692F0E94C61882E0C4
:1028700062E041E00E940F1A80E090E0A0E0B0E446
:10288000898F9A8FAB8FBC8F698D7A8D8B8D9C8D44
:1028900020E030E04AEF54E40E941702DC01CB0153
:1028A0008D8B9E8BAF8BB88F6D897E898F89988D2C
:1028B00020E030E040E85FE30E94710388232CF4BD
:1028C00081E090E09C8B8B8B3FC06D897E898F89E6
:1028D000988D20E03FEF4FE757E40E941103181650
:1028E0004CF5698D7A8D8B8D9C8D20E030E040E237
:1028F00051E40E941702DC01CB01BC01CD010E9412
:102900004100DC01CB019C8B8B8B0FC088EC90E0ED
:102910009A8B898B89899A890197F1F79A8B898B90
:102920008B899C8901979C8B8B8B8B899C890097C9
:1029300069F714C06D897E898F89988D0E94410046
:10294000DC01CB019C8B8B8B8B899C89988B8F872F
:102950008F8598890197F1F7988B8F8782E062E0E5
:1029600040E00E940F1A80E090E0A0E0B0E48B8786
:102970009C87AD87BE876B857C858D859E8520E095
:1029800030E04AEF54E40E941702DC01CB018F8350
:102990009887A987BA876F81788589859A8520E08D
:1029A00030E040E85FE30E94710388232CF481E06B
:1029B00090E09E838D833FC06F81788589859A855D
:1029C00020E03FEF4FE757E40E94110318164CF543
:1029D0006B857C858D859E8520E030E040E251E46A
:1029E0000E941702DC01CB01BC01CD010E94410015
:1029F000DC01CB019E838D830FC088EC90E09C832B
:102A00008B838B819C810197F1F79C838B838D81D4
:102A10009E8101979E838D838D819E81009769F7AA
:102A200014C06F81788589859A850E944100DC01F8
:102A3000CB019E838D838D819E819A838983898139
:102A40009A810197F1F79A83898382E062E041E0FD
:102A50000E940F1AEB960FB6F894DEBF0FBECDBFE3
:102A6000CF91DF910895DF93CF93CDB7DEB7E8978D
:102A70000FB6F894DEBF0FBECDBF82E060E041E04C
:102A80000E94071982E061E041E00E94071982E09C
:102A900062E041E00E94071983E061E00E94C618ED
:102AA00080E090E0A0EFB1E48DAB9EABAFABB8AFF0
:102AB0006DA97EA98FA998AD20E030E04AEF54E4DB
:102AC0000E941702DC01CB0189AB9AABABABBCAB6C
:102AD00069A97AA98BA99CA920E030E040E85FE3CE
:102AE0000E94710388232CF481E090E098AB8FA7BB
:102AF0003FC069A97AA98BA99CA920E03FEF4FE7C5
:102B000057E40E94110318164CF56DA97EA98FA9F0
:102B100098AD20E030E040E251E40E941702DC0171
:102B2000CB01BC01CD010E944100DC01CB0198AB7F
:102B30008FA70FC088EC90E09EA78DA78DA59EA5BE
:102B40000197F1F79EA78DA78FA598A9019798AB3C
:102B50008FA78FA598A9009769F714C069A97AA9CA
:102B60008BA99CA90E944100DC01CB0198AB8FA7E7
:102B70008FA598A99CA78BA78BA59CA50197F1F77A
:102B80009CA78BA784E20E943F0D80E090E0A0E02C
:102B9000B0E48FA398A7A9A7BAA76FA178A589A524
:102BA0009AA520E030E04AEF54E40E941702DC01CD
:102BB000CB018BA39CA3ADA3BEA36BA17CA18DA1D4
:102BC0009EA120E030E040E85FE30E94710388238B
:102BD0002CF481E090E09AA389A33FC06BA17CA173
:102BE0008DA19EA120E03FEF4FE757E40E94110323
:102BF00018164CF56FA178A589A59AA520E030E0BC
:102C000040E251E40E941702DC01CB01BC01CD017E
:102C10000E944100DC01CB019AA389A30FC088EC7C
:102C200090E098A38F8F8F8D98A10197F1F798A3CB
:102C30008F8F89A19AA101979AA389A389A19AA1AB
:102C4000009769F714C06BA17CA18DA19EA10E9481
:102C50004100DC01CB019AA389A389A19AA19E8F8F
:102C60008D8F8D8D9E8D0197F1F79E8F8D8F8EE0CC
:102C70000E94DF1080E090E0A0E0B0E4898F9A8F9E
:102C8000AB8FBC8F698D7A8D8B8D9C8D20E030E071
:102C90004AEF54E40E941702DC01CB018D8B9E8B1E
:102CA000AF8BB88F6D897E898F89988D20E030E059
:102CB00040E85FE30E94710388232CF481E090E0F8
:102CC0009C8B8B8B3FC06D897E898F89988D20E08E
:102CD0003FEF4FE757E40E94110318164CF5698D3A
:102CE0007A8D8B8D9C8D20E030E040E251E40E9493
:102CF0001702DC01CB01BC01CD010E944100DC01C7
:102D0000CB019C8B8B8B0FC088EC90E09A8B898BCE
:102D100089899A890197F1F79A8B898B8B899C898C
:102D200001979C8B8B8B8B899C89009769F714C0CA
:102D30006D897E898F89988D0E944100DC01CB01CD
:102D40009C8B8B8B8B899C89988B8F878F8598899F
:102D50000197F1F7988B8F8781E00E94DF1080E068
:102D600090E0A0E0B0E48B879C87AD87BE876B8541
:102D70007C858D859E8520E030E04AEF54E40E94FA
:102D80001702DC01CB018F839887A987BA876F81EF
:102D9000788589859A8520E030E040E85FE30E94ED
:102DA000710388232CF481E090E09E838D833FC0E3
:102DB0006F81788589859A8520E03FEF4FE757E45A
:102DC0000E94110318164CF56B857C858D859E85B8
:102DD00020E030E040E251E40E941702DC01CB0128
:102DE000BC01CD010E944100DC01CB019E838D839B
:102DF0000FC088EC90E09C838B838B819C81019732
:102E0000F1F79C838B838D819E8101979E838D83B7
:102E10008D819E81009769F714C06F8178858985BF
:102E20009A850E944100DC01CB019E838D838D81B8
:102E30009E819A83898389819A810197F1F79A8388
:102E4000898386E00E94DF10E8960FB6F894DEBF13
:102E50000FBECDBFCF91DF910895DF93CF9300D008
:102E600000D00F92CDB7DEB78A836B838A81282F7B
:102E700030E03D832C838C819D8181309105C1F0B0
:102E80002C813D81223031052CF48C819D8100976D
:102E900061F019C02C813D812230310569F08C81AF
:102EA0009D818330910561F00EC08B8189830BC0B9
:102EB0008B81805C898307C08B81805F898303C09D
:102EC0008B81805B8983898180680E948D090F9046
:102ED0000F900F900F900F90CF91DF910895EF9288
:102EE000FF920F931F93DF93CF93CDB7DEB7289751
:102EF0000FB6F894DEBF0FBECDBF6D837E838F8388
:102F0000988781E090E0A0E0B0E089839A83AB836A
:102F1000BC838D819E81AF81B8850097A105B105E5
:102F2000D1F580E30E94A20A36C089819A81AB81E3
:102F3000BC812AE030E040E050E0BC01CD010E94BD
:102F40006F1C7B018C018D819E81AF81B8852AE049
:102F500030E040E050E0BC01CD010E948E1CDC015D
:102F6000CB018E0D9F1DA01FB11F89839A83AB8358
:102F7000BC838D819E81AF81B8852AE030E040E03E
:102F800050E0BC01CD010E948E1CDA01C9018D8385
:102F90009E83AF83B8878D819E81AF81B88500976E
:102FA000A105B10511F623C089819A81AB81BC814D
:102FB0002AE030E040E050E0BC01CD010E948E1CD0
:102FC000DC01CB01805D0E94A20A89819A81AB81DC
:102FD000BC812AE030E040E050E0BC01CD010E941D
:102FE0008E1CDA01C90189839A83AB83BC838981F2
:102FF0009A81AB81BC8181309105A105B105A1F613
:1030000028960FB6F894DEBF0FBECDBFCF91DF91EB
:103010001F910F91FF90EF900895DF93CF9300D011
:10302000CDB7DEB79A8389830BC0E981FA8120810D
:1030300089819A8101969A838983822F0E94A20AAC
:10304000E981FA818081882381F70F900F90CF91D9
:10305000DF910895DF93CF93CDB7DEB762970FB6B8
:10306000F894DEBF0FBECDBF9A8B898B89899A8970
:103070009E012F5F3F4FB9014AE050E00E94E71CDC
:10308000CE0101960E940D1862960FB6F894DEBF2D
:103090000FBECDBFCF91DF910895DF93CF9300D0C6
:1030A00000D000D0CDB7DEB789836A838A818130B2
:1030B00099F58981282F30E03E832D838D819E8173
:1030C00081309105D1F02D813E81223031052CF4E3
:1030D0008D819E81009761F050C02D813E8122300C
:1030E000310581F08D819E818330910581F045C04D
:1030F000EAE3F0E08FEF808340C0E7E3F0E08FEF9A
:1031000080833BC0E4E3F0E08FEF808336C0E1E3EF
:10311000F0E08FEF808331C08A81882371F5898147
:10312000282F30E03C832B838B819C81813091055B
:10313000C9F02B813C81223031052CF48B819C819C
:10314000009761F01AC02B813C812230310571F06B
:103150008B819C818330910569F00FC0EAE3F0E038
:1031600010820BC0E7E3F0E0108207C0E4E3F0E078
:10317000108203C0E1E3F0E0108226960FB6F894C7
:10318000DEBF0FBECDBFCF91DF910895DF93CF9308
:1031900000D000D0CDB7DEB789836A838981282F1C
:1031A00030E03C832B838B819C8181309105D1F071
:1031B0002B813C81223031052CF48B819C8100973E
:1031C00061F01EC02B813C812230310581F08B8162
:1031D0009C818330910581F013C0EBE3F0E08A819C
:1031E00080830EC0E8E3F0E08A81808309C0E5E3D4
:1031F000F0E08A81808304C0E2E3F0E08A8180838A
:103200000F900F900F900F90CF91DF910895DF9363
:10321000CF93CDB7DEB727970FB6F894DEBF0FBEBA
:10322000CDBF89836A834B838981843008F0EEC0E7
:103230008A81883008F0EAC08B81813009F06FC044
:103240008981282F30E03F832E838E819F818130BA
:10325000910549F12E813F81223031052CF48E8178
:103260009F81009761F0D2C02E813F8122303105CD
:1032700071F18E819F8183309105E9F1C7C0AAE386
:10328000B0E0EAE3F0E08081482F8A81282F30E027
:1032900081E090E0022E02C0880F991F0A94E2F7A5
:1032A000842B8C93B3C0A7E3B0E0E7E3F0E0808128
:1032B000482F8A81282F30E081E090E0022E02C062
:1032C000880F991F0A94E2F7842B8C939FC0A4E384
:1032D000B0E0E4E3F0E08081482F8A81282F30E0DD
:1032E00081E090E0022E02C0880F991F0A94E2F755
:1032F000842B8C938BC0A1E3B0E0E1E3F0E080810C
:10330000482F8A81282F30E081E090E0022E02C011
:10331000880F991F0A94E2F7842B8C9377C08B81D6
:10332000882309F073C08981282F30E03D832C83E6
:103330008C819D818130910559F12C813D81223014
:1033400031052CF48C819D81009769F05FC02C8140
:103350003D812230310589F18C819D818330910539
:1033600009F440C053C0AAE3B0E0EAE3F0E0808192
:10337000482F8A81282F30E081E090E0022E02C0A1
:10338000880F991F0A94E2F7809584238C933EC09E
:10339000A7E3B0E0E7E3F0E08081482F8A81282F9F
:1033A00030E081E090E0022E02C0880F991F0A945D
:1033B000E2F7809584238C9329C0A4E3B0E0E4E392
:1033C000F0E08081482F8A81282F30E081E090E072
:1033D000022E02C0880F991F0A94E2F78095842379
:1033E0008C9314C0A1E3B0E0E1E3F0E08081482FCA
:1033F0008A81282F30E081E090E0022E02C0880F01
:10340000991F0A94E2F7809584238C9327960FB630
:10341000F894DEBF0FBECDBFCF91DF910895DF934B
:10342000CF93CDB7DEB727970FB6F894DEBF0FBEA8
:10343000CDBF89836A834B838981843008F0EEC0D5
:103440008A81883008F0EAC08B81813009F06FC032
:103450008981282F30E03F832E838E819F818130A8
:10346000910549F12E813F81223031052CF48E8166
:103470009F81009761F0D2C02E813F8122303105BB
:1034800071F18E819F8183309105E9F1C7C0ABE373
:10349000B0E0EBE3F0E08081482F8A81282F30E014
:1034A00081E090E0022E02C0880F991F0A94E2F793
:1034B000842B8C93B3C0A8E3B0E0E8E3F0E0808114
:1034C000482F8A81282F30E081E090E0022E02C050
:1034D000880F991F0A94E2F7842B8C939FC0A5E371
:1034E000B0E0E5E3F0E08081482F8A81282F30E0CA
:1034F00081E090E0022E02C0880F991F0A94E2F743
:10350000842B8C938BC0A2E3B0E0E2E3F0E08081F7
:10351000482F8A81282F30E081E090E0022E02C0FF
:10352000880F991F0A94E2F7842B8C9377C08B81C4
:10353000882309F073C08981282F30E03D832C83D4
:103540008C819D818130910559F12C813D81223002
:1035500031052CF48C819D81009769F05FC02C812E
:103560003D812230310589F18C819D818330910527
:1035700009F440C053C0ABE3B0E0EBE3F0E080817E
:10358000482F8A81282F30E081E090E0022E02C08F
:10359000880F991F0A94E2F7809584238C933EC08C
:1035A000A8E3B0E0E8E3F0E08081482F8A81282F8B
:1035B00030E081E090E0022E02C0880F991F0A944B
:1035C000E2F7809584238C9329C0A5E3B0E0E5E37E
:1035D000F0E08081482F8A81282F30E081E090E060
:1035E000022E02C0880F991F0A94E2F78095842367
:1035F0008C9314C0A2E3B0E0E2E3F0E08081482FB6
:103600008A81282F30E081E090E0022E02C0880FEE
:10361000991F0A94E2F7809584238C9327960FB61E
:10362000F894DEBF0FBECDBFCF91DF910895DF9339
:10363000CF9300D000D00F92CDB7DEB78A836B83D3
:103640008A81843008F06BC08B81883008F067C0B5
:103650008A81282F30E03D832C834C815D8141306D
:10366000510541F18C819D818230910534F42C818A
:103670003D812115310561F052C04C815D814230A0
:10368000510551F18C819D8183309105B9F147C07D
:10369000E9E3F0E08081282F30E08B81882F90E0F3
:1036A000A90102C0559547958A95E2F7CA01817034
:1036B000898335C0E6E3F0E08081282F30E08B81FC
:1036C000882F90E0A90102C0559547958A95E2F7A9
:1036D000CA018170898323C0E3E3F0E08081282F51
:1036E00030E08B81882F90E0A90102C05595479565
:1036F0008A95E2F7CA018170898311C0E0E3F0E0A6
:103700008081282F30E08B81882F90E0A90102C0B2
:10371000559547958A95E2F7CA0181708983898119
:103720000F900F900F900F900F90CF91DF91089511
:10373000DF93CF93CDB7DEB781E060E040E00E9439
:10374000071981E061E040E00E94071981E062E032
:1037500040E00E94071981E063E041E00E94071900
:1037600081E064E041E00E94071981E060E00E948E
:10377000171B882321F581E061E00E94171B81302F
:10378000F1F481E062E00E94171B8823C1F481E01C
:1037900063E040E00E940F1A81E064E041E00E9493
:1037A0000F1A81E065E040E00E940F1A81E066E0B8
:1037B00041E00E940F1A81E40E94A20AD6CF81E064
:1037C00060E00E94171B813061F481E061E00E949B
:1037D000171B882331F481E062E00E94171B8823C5
:1037E00091F081E060E00E94171B813021F581E0BB
:1037F00061E00E94171B8130F1F481E062E00E94D9
:10380000171B8823C1F481E063E040E00E940F1A97
:1038100081E064E041E00E940F1A81E065E040E051
:103820000E940F1A81E066E040E00E940F1A82E4D5
:103830000E94A20A9ACF81E060E00E94171B8823B1
:1038400061F481E061E00E94171B882331F481E07C
:1038500062E00E94171B813091F081E060E00E94DD
:10386000171B882321F581E061E00E94171B81303E
:10387000F1F481E062E00E94171B8130C1F481E025
:1038800065E040E00E940F1A81E066E041E00E949E
:103890000F1A81E063E040E00E940F1A81E064E0CB
:1038A00040E00E940F1A83E40E94A20A5ECF81E0EA
:1038B00063E040E00E940F1A81E064E040E00E9473
:1038C0000F1A81E065E040E00E940F1A81E066E097
:1038D00040E00E940F1A84E40E94A20A46CF629F31
:1038E000D001739FF001829FE00DF11D649FE00DF8
:1038F000F11D929FF00D839FF00D749FF00D659F59
:10390000F00D9927729FB00DE11DF91F639FB00D57
:10391000E11DF91FBD01CF0111240895A1E21A2E66
:10392000AA1BBB1BFD010DC0AA1FBB1FEE1FFF1F63
:10393000A217B307E407F50720F0A21BB30BE40BB3
:10394000F50B661F771F881F991F1A9469F76095FA
:103950007095809590959B01AC01BD01CF010895B4
:103960002F923F924F925F926F927F928F929F928F
:10397000AF92BF92CF92DF92EF92FF920F931F937D
:10398000CF93DF93CDB7DEB7CA1BDB0B0FB6F8942E
:10399000DEBF0FBECDBF09942A88398848885F846E
:1039A0006E847D848C849B84AA84B984C884DF80DF
:1039B000EE80FD800C811B81AA81B981CE0FD11DC3
:1039C0000FB6F894DEBF0FBECDBFED010895FB0129
:1039D0009F01E8944230C4F04532B4F44A3029F4EF
:1039E00097FB1EF4909581959F4F642F77270E9437
:1039F000181D805D8A330CF0895D8193CB0100979F
:103A0000A1F716F45DE251931082C9010C94081DD0
:103A1000DC01FC01672F71917723E1F7329704C035
:103A20007C916D9370836291AE17BF07C8F30895C0
:103A3000AA1BBB1B51E107C0AA1FBB1FA617B707D4
:103A400010F0A61BB70B881F991F5A95A9F78095F0
:0C3A50009095BC01CD010895F894FFCFC3
:083A5C00000000000000000062
:00000001FF
